S01700004D61696E5F636F6E74726F6C6C65722E73726563E5
S11300000C9434000C9446000C9446000C94460066
S11300100C9446000C9446000C9446000C94460044
S11300200C9446000C9446000C9446000C94460034
S11300300C9446000C9446000C9446000C94460024
S11300400C9446000C9446000C9446000C94460014
S11300500C94460086006A00AB008F009300970062
S11300609B009F00A300A70011241FBECFE5D8E08A
S1130070DEBFCDBF20E0A0E6B0E001C01D92A236F5
S1130080B207E1F70E9454000C943F030C94000063
S11300900E94470108950E94E30008950E94EE0023
S11300A008950E94150108950E94C6008091600081
S11300B00E94EE0080E00E94E3000E9440010E9442
S11300C035010E940C01809161000E94470183E088
S11300D00E94BA000E943B018130E1F70E9438017E
S11300E0D82F90E0FC01E556F109EA30F10590F7CC
S11300F0E65DFF4F0C9425039C2F990F292F220FA7
S1130100220F920F890FC0EDC80F01C0C0E00E94FA
S11301103801D813F1CF8C2F0E944B00DBCF81E044
S11301200E944E00D7CF80E00E944E00D3CF81E0E2
S11301300E945100CFCF80E00E945100CBCF82E0DB
S11301400E945100C7CF83E00E94BE00C3CF83E06A
S11301500E94C200BFCF80916100843019F41092D4
S1130160610003C08F5F80936100809161000E94F1
S11301704800B0CF61E00E947C01089561E00E94D4
S11301800802089560E00E940802089561E08CE08E
S11301900E947C0161E08BE00E947C0161E08DE0C3
S11301A00E947C0161E08CE00E94080260E08BE028
S11301B00E9408020E94A80208950E94C2020895A3
S11301C00E94C5020895CF93C82F0E94E0008C2F8F
S11301D00E94B9020E94DD00CF910895CF93C82FE9
S11301E00E94E000CC2319F0C13051F011C060E04E
S11301F08CE00E94080261E08BE00E94080208C0C3
S113020061E08CE00E94080260E08BE00E9408023A
S11302100E94DD00CF91089561E084E20E947C0198
S113022061E083E20E947C010895813061F0A0F0D6
S11302308230D1F460E084E20E94080261E083E24B
S11302400E940802089561E084E20E94080260E0CE
S113025083E20E940802089560E084E20E9408029A
S113026060E083E20E94080208950E94FC0208955F
S11302700E940D0308958BB1881F8827881F089555
S113028061E085E20E947C010E94C80208958230E8
S1130290D9F028F4882341F0813071F00895833037
S11302A0D9F0843009F108950E94F90280E00E9497
S11302B0D9020E94F60208950E94F90289E10E947F
S11302C0D9020E94F60208950E94F90282E30E9474
S11302D0D9020E94F60208950E94F9028BE40E945A
S11302E0D9020E94F60208950E94F90283E60E9450
S11302F0D9020E94F60208959DEC899F912D112444
S1130300292F269526952695220F322F330F330F4A
S1130310230F821B282F892F8695869586958130F9
S113032019F130F08230E1F1833009F455C00895B9
S1130330662319F0613069F008953AB381E090E0E2
S113034002C0880F991F2A95E2F7809583238ABB00
S113035008953AB381E090E002C0880F991F2A956E
S1130360E2F7832B8ABB0895662319F0613069F0A4
S1130370089537B381E090E002C0880F991F2A9551
S1130380E2F78095832387BB089537B381E090E03B
S113039002C0880F991F2A95E2F7832B87BB089523
S11303A0662319F0613069F0089534B381E090E078
S11303B002C0880F991F2A95E2F78095832384BB96
S11303C0089534B381E090E002C0880F991F2A9504
S11303D0E2F7832B84BB0895662319F0613069F03A
S11303E0089531B381E090E002C0880F991F2A95E7
S11303F0E2F78095832381BB089531B381E090E0D7
S113040002C0880F991F2A95E2F7832B81BB0895B8
S11304109DEC899F912D1124292F269526952695AB
S1130420220F322F330F330F230F821B282F892FD4
S1130430869586958695813019F130F08230E1F108
S1130440833009F455C00895662319F0613069F0CA
S113045008953BB381E090E002C0880F991F2A956C
S1130460E2F7809583238BBB08953BB381E090E052
S113047002C0880F991F2A95E2F7832B8BBB08953E
S1130480662319F0613069F0089538B381E090E093
S113049002C0880F991F2A95E2F78095832388BBB1
S11304A0089538B381E090E002C0880F991F2A951F
S11304B0E2F7832B88BB0895662319F0613069F055
S11304C0089535B381E090E002C0880F991F2A9502
S11304D0E2F78095832385BB089535B381E090E0EE
S11304E002C0880F991F2A95E2F7832B85BB0895D4
S11304F0662319F0613069F0089532B381E090E029
S113050002C0880F991F2A95E2F78095832382BB46
S1130510089532B381E090E002C0880F991F2A95B4
S1130520E2F7832B82BB089583B7816083BF83B7CF
S11305308D7F83BF83B7846083BF089583B78E7F25
S113054083BF83B78D7F83BF83B78B7F83BF0895BA
S113055083B7886083BF83B7806483BF61E08CE026
S11305600E947C0183B7806183BF83B7806283BFAD
S11305700895982F80E064E670E00E94110360956E
S11305806CBF08950E94940208950E949E020895EB
S113059085B5886085BD85B5806485BD61E085E2EB
S11305A00E947C0185B5806185BD85B5806285BD6D
S11305B00895982F80E064E670E00E94110360952E
S11305C063BD089585B5816085BD85B58D7F85BD85
S11305D085B5846085BD089585B58E7F85BD85B557
S11305E08D7F85BD85B58B7F85BD08950E94E20210
S11305F008950E94EC02089560E08EE10E947C015F
S113060061E08FE10E947C011BB888E18AB986E829
S113061080BD87E689B910BC08955F9BFECF8CB17D
S1130620089597FB072E16F4009407D077FD09D0A0
S11306300E942B0307FC05D03EF4909581959F4FB3
S11306400895709561957F4F0895EE0FFF1F0590F3
S1130650F491E02D0994AA1BBB1B51E107C0AA1F0A
S1130660BB1FA617B70710F0A61BB70B881F991F4F
S11306705A95A9F780959095BC01CD010895F894F9
S1050680FFCFA6
S9030000FC
